:020000040800F2
:10000000580A00202D0200084F630008AB290008A1
:100010004D6300088B080008297B000800000000E1
:10002000000000000000000000000000ED6A000871
:10003000550B0008000000004D660008336B0008F7
:10004000470200084702000847020008E968000864
:10005000470200084702000847020008470200085C
:10006000470200084702000847020008470200084C
:10007000470200084702000847020008470200083C
:10008000470200084702000847020008470200082C
:10009000470200084702000847020008470200081C
:1000A000470200084702000847020008470200080C
:1000B00047020008816B0008C56B00084702000872
:1000C00047020008470200084702000847020008EC
:1000D00047020008FD7A00084702000847020008AE
:1000E00047020008470200084702000847020008CC
:1000F00047020008470200084702000847020008BC
:1001000047020008470200084702000847020008AB
:10011000470200084702000847020008470200089B
:10012000470200084702000847020008470200088B
:1001300000F002F800F06BF80AA090E8000C82448E
:100140008344AAF10107DA4501D100F060F8AFF26B
:10015000090EBAE80F0013F0010F18BFFB1A43F0A5
:1001600001031847E09B0300009C03000A444FF082
:10017000000C10F8013B13F0070408BF10F8014B06
:100180001D1108BF10F8015B641E05D010F8016B4B
:10019000641E01F8016BF9D113F0080F1EBF10F8AF
:1001A000014BAD1C0C1B09D16D1E58BF01F801CBD2
:1001B000FAD505E014F8016B01F8016B6D1EF9D555
:1001C0009142D6D37047000000230024002500266A
:1001D000103A28BF78C1FBD8520728BF30C148BFAA
:1001E0000B607047642900F09F80752900F09C80A7
:1001F000782900F0D580632900F07482732900F01B
:100200007982002070471FB51FBD10B510BD00F0EA
:10021000ABFA1146FFF7F7FF07F018FF00F0C9FA35
:1002200003B4FFF7F2FF03BC07F086FC09488047E0
:1002300009480047FEE7FEE7FEE7FEE7FEE7FEE7C8
:10024000FEE7FEE7FEE7FEE704480549054A064BE0
:1002500070470000396B0008310100085804002085
:10026000580A002058060020580600207047000059
:100270000FB4044910B503AA029800F03FFA10BC6D
:100280005DF814FB1000002070B504468569006815
:10029000C10601D5302600E02026C00707D070BD7A
:1002A000D4E9012130469047206A401C20626D1E2F
:1002B000F6D570BD70B5044685690078C00707D1D2
:1002C00070BDD4E9012120209047206A401C2062A3
:1002D0006D1EF6D570BD70B50C460546012A05D0D9
:1002E0002878800600D5EA69002302E0012305E0B2
:1002F0005B1C934202D2E05C0028F9D1A869E618A1
:10030000C01AA861286A184428622846FFF7BCFF73
:1003100004E0D5E9012114F8010B9047B442F8D369
:100320002846FFF7C7FF70BD2DE9F04106460024BF
:1003300010687529314616A510D0AFF3008000284B
:1003400002DA404213A507E031688A0701D512A5F9
:1003500002E0490704D511A5012401E0AFF30080B4
:1003600000210A2206F1240709E0B0FBF2FCB0FBF1
:10037000F2F302FB1C00303078541846491C002868
:10038000F3D123462A463046BDE8F04100F047B994
:10039000000000002D0000002B00000020000000E5
:1003A00070B504460D4621461068AFF300802188E1
:1003B000090502D50F4A7A4402E00E4A7A440E3209
:1003C000002104F1240305E000F00F060009965D0A
:1003D0005E54491C0028F7D120780023000704D57B
:1003E000702D02D009B1022311322046BDE87040C1
:1003F00000F015B9BA9703002DE9F05F894604466D
:100400004FF0000ADFF874B1FB44C0F820A020468A
:10041000E1688847002874D0252806D0D4E9012156
:100420009047206A401C2062F1E700265F46204684
:10043000E16888472028054607DB312D05D2781969
:1004400010F8200C08B10643F1E7B00701D526F0FB
:100450000406C4F81CA00027C4F818A02A2D09D04F
:10046000284607F062FB38B304EB8708303DC8F834
:10047000185019E059F8041B204604EB87029161DB
:10048000E1688847012F054618D1E069002820DA85
:1004900026F020061DE0D8F8180000EB800005EBE0
:1004A00040003038C8F818002046E1688847054603
:1004B00007F03BFB0028EED1012F0AD02E2D08D1EA
:1004C0002046E16888477F1C0546022F46F020063B
:1004D000C4DBA069002803DA404246F00106A061AF
:1004E000F00701D026F010066C2D0BD0682D09D036
:1004F0004C2D39D06A2D35D0742D35D07A2D33D08E
:1005000016E038E0E1682F4620468847B8420546A5
:1005100009D16C2F26D04FF48060E1680643204655
:100520008847054604E06C2F1AD04FF480700643CC
:100530000DB3A5F14100192802D8203546F4006614
:100540004A462946204626604E46FFF74BFE80B1BC
:1005500001280BD0F61D26F0070000F1080956E728
:100560004020E4E78020D8E70020D6E706F1040920
:100570004DE7284652E7206ABDE8F09F90970300B8
:100580004FF0013C50F8042B51F8043B9A4221D122
:10059000A2EB0C03934313EACC1317D150F8042BAE
:1005A00051F8043B9A4215D1A2EB0C03934313EA92
:1005B000CC130BD150F8042B51F8043B9A4209D1CB
:1005C000A2EB0C03934313EACC13DBD04FF00000F3
:1005D000704700BFD01A01BAB1FA81F101F01801D9
:1005E00022FA01F0CB40C1F12001DBB2C0B2C01A47
:1005F0002CFA01F3D11A914311EAC311E6D17047E5
:10060000704770477047704710B500F089F8006870
:1006100010BD10B5044600F083F8046010BD2DE94C
:10062000F0470D4699469246044600F124080168B9
:10063000880604D5E06921F01001216000E0012066
:10064000A84201DD471B00E00027A1697A1902EBEF
:100650000900081AA0612078C00602D42046FFF7DE
:1006600013FE002608E0D4E901211AF8060090479D
:10067000206A401C761C20624E45F4DB2078C006C0
:100680000AD52046FFF700FE06E0D4E9012130201C
:100690009047206A401C2062381EA7F10107F4DC55
:1006A00007E0D4E9012118F805009047206A401CB2
:1006B0002062281EA5F10105F3DC2046FFF7FAFDB4
:1006C0002078000602D50220BDE8F0870120FBE774
:1006D00010B5436913B1AFF3008001E0FFF7FBFDF4
:1006E000012010BD127800F124010A7000224A7026
:1006F0000122EDE711684FF0FF32E9E7074B70B5D3
:100700000D467B4400F015F80446284600F024F816
:1007100010B14FF0FF3070BD204670BD83760000F1
:1007200000487047F803002001694A1C02610878FC
:10073000704700B58FB0CDE9013100210591054921
:100740007944CDE9031011466846FFF755FE0FB016
:1007500000BD0000E5FFFFFF007B00F08000704758
:1007600000487047F80300207546FFF7F9FFAE46D2
:1007700005006946534620F00700854618B020B5AD
:10078000FFF762FDBDE820404FF000064FF0000784
:100790004FF000084FF0000B21F00701AC46ACE829
:1007A000C009ACE8C009ACE8C009ACE8C0098D4696
:1007B000704710B50446AFF300802046BDE81040F6
:1007C000FFF72EBD02F012B970B515460E4604466D
:1007D00008E02046641CA4B200F007F86D1E06F87D
:1007E000010BADB2002DF4D170BD10B5044602F07E
:1007F000A7F9200AA02101EB4000C0B202F070F975
:1008000002F0E0F9E0B202F06BF902F0DBF902F07D
:1008100097F9A12002F064F902F0D4F9002002F067
:1008200029F9044602F0ACF9204610BD70B5144613
:100830000D46064606E02978304600F007F8761C9B
:10084000B6B26D1C641EA4B2F5D270BD70B50D4673
:10085000044602F075F9200AA02101EB4000C0B265
:1008600002F03EF902F0AEF9E0B202F039F902F01E
:10087000A9F9284602F034F902F0A4F902F080F94F
:10088000BDE870400A2007F0E7B9FEE770B50F4CED
:100890000025C4F884510E48016821F0F001016080
:1008A000016841F030010160052004F5C27407F0D1
:1008B000E1F90848C0F8A451052007F0DBF9012050
:1008C0002060052007F0D6F9256070BD0080214228
:1008D000041C014000802342154810B5816986B090
:1008E00041F008018161816901F008010491816989
:1008F00041F0800181618069012400F08000049052
:100900000220CDE900040320CDE9024069460948F0
:1009100000F016FE600200906946074800F010FEE5
:100920000648C0F884410648C0F8A44106B010BD8E
:1009300000100240000C0140001C014000802142D8
:100940000080234270B50F4C0026C4F884610E4825
:10095000016821F0F0010160016841F0300101609F
:10096000052004F5C27407F085F908480125C0F890
:10097000A451052007F07EF92560052007F07AF9DB
:10098000266070BD00802142041C0140008023428B
:100990002DE9F047824618480024016821F0F00153
:1009A0000160016841F0800101601E2007F062F9DA
:1009B0000025124EDFF848902F464FF00108C6F888
:1009C0008471052007F056F9C6F884816006040E8C
:1009D000D9F8240108B1641CE4B26D1CEDB2082DF5
:1009E000EDD3BAF1000F04D0FFF750FF2046BDE869
:1009F000F087FFF7A7FFF9E7041C014000802142C0
:100A0000008023422DE9F04705461548016821F092
:100A1000F0010160016841F030010160114E0027D2
:100A2000C6F88471052007F025F9DFF83C80002422
:100A30004FF00109E909C8F8A4116806050EC6F8C7
:100A40008491052007F016F9C6F88471052007F097
:100A500011F9641CE4B2082CECD3BDE8F087000067
:100A6000041C0140008021420080234270B50F48E1
:100A7000016821F0F0010160016841F0300101607E
:100A80000B4E0120C6F8A4010A4DC5F884011E20B2
:100A900005F5C27506F5D27607F0ECF8002434604F
:100AA000052007F0E7F82C6070BD0000041C014031
:100AB000008023420080214270B50D48016821F07A
:100AC000F0010160016841F0300101600948012531
:100AD000C0F884511E2007F0CDF8074C0020C4F860
:100AE000A401052004F5D27407F0C4F8256070BD98
:100AF000041C0140008021420080234270B512484E
:100B00000024016821F0F0010160016841F08001DA
:100B100001600E4D0120C5F8A4010D4EC6F88401F8
:100B200007E0641CE4B2FA2C03D9FFF7C5FF0120EB
:100B300070BD052007F09EF8D5F824010028F0D1FB
:100B4000C6F8840170BD0000041C014000802342EF
:100B5000008021427047000070B5B3F5804F05D08A
:100B60006FF0704140F82210002070BD0C688B6956
:100B7000F0251C4395FAA5F54B68B5FA85F5AB4011
:100B80004FF47F4696FAA6F68D68B6FA86F6B5401B
:100B90002B431C434FF47023C96893FAA3F3B3FAB1
:100BA00083F399400C4350F82210034B19400C4337
:100BB00040F82240D8E700000000F0CF30B50A68C6
:100BC00050F8223023F0010340F822308A68214B8C
:100BD000082A1ED04C681443D1E903252A43144344
:100BE0004A6914438A691443CA6914430A6A14435C
:100BF0004A6A14438A6A1443CA6A14430A6B09682E
:100C0000144350F821201A40144340F8214000209A
:100C100030BD4A68D1E9034542F008022C43224323
:100C20004C6922438C692243CC6922430C6A2243DB
:100C30004C6A22438C6A2243CC6A22430C6B0968BB
:100C4000224350F821401C40224342F0400240F829
:100C50002120DCE78100F7FF70B5F025D1E90034F1
:100C600095FAA5F5B5FA85F5AC4023434FF47F45D9
:100C700095FAA5F58C68B5FA85F5AC404FF4702669
:100C800096FAA6F6CD68B6FA86F6B5402C4323430D
:100C90004FF470050C6995FAA5F5B5FA85F5641E53
:100CA000AC4023434FF070654C6995FAA5F5B5FA51
:100CB00085F5A41EAC408969234300EB82000B43F9
:100CC000416801F040410B434360002070BD0000CB
:100CD00070B5344886B0816941F0800181618069D6
:100CE000012400F0800005904FF40060CDE901047C
:100CF0000320CDE903402C4E01A9304600F020FC32
:100D0000A0020025CDE9010501A9304600F018FC3C
:100D1000FFF7E2FD254EC6F8AC51142006F5D67655
:100D200006F09AFF3460322006F096FF8DF80050EE
:100D300001226946002000F007F901226946A4203B
:100D400000F002F916208DF800000122694680208B
:100D500000F0FAF80C208DF8000001226946882086
:100D600000F0F2F802226946A12000F027F89DF871
:100D70000000302803D19DF8011003290AD09DF806
:100D80000110012906D0022904D000B911B10120B7
:100D900006B070BDC9B201EB002105A0FFF768FAEB
:100DA0000020F5E700100240001C014000802342B3
:100DB0004354502049443A25780D0A002DE9F0416A
:100DC00015460F460446FFF751FE7020FFF71AFE46
:100DD000FFF794FEE0B2FFF715FEFFF78FFEFFF777
:100DE00045FE7120FFF70EFEFFF788FE00246E1E01
:100DF00009E0B44201D0012000E00020FFF7C8FD67
:100E00003855641CE4B2AC42F3D3BDE8F041FFF7BF
:100E100053BE00002DE9F143484F00244FF00A096A
:100E2000387882B0401CC0B2B0FBF9F209FB120165
:100E3000434DA046387009B10A2863D2012202A9A5
:100E40000220FFF7BBFF9DF8080001075AD000F011
:100E50000F00062856D2FF218140C84340F0C00051
:100E600085F820004FF00108002695F8201008FAB8
:100E700004F0014239D033480422694630F81400A6
:100E8000FFF79CFF95F830009DF80010C0079DF813
:100E9000010001F00F010ED000EB012105EB440031
:100EA000C1829DF802209DF8031002F00F0201EBB1
:100EB000022181810FE000EB0120C0F5F07105EB0C
:100EC000440081819DF802209DF8031002F00F027A
:100ED00001EB0221C1829DF800000821B1EB101F37
:100EE00003D005EB4400C6828681641CE4B2052C65
:100EF000BBD3A9894FF0010819B9E88A08B98DF860
:100F000008603E709DF80800C0060ED195F82000DC
:100F1000010602D520F0800005E04FF6FF71A9819F
:100F2000E98200F0E00085F820003878F02801D947
:100F300087F800904046BDE8FE830000390000209D
:100F4000400000209A9A03082DE9F04115460E460C
:100F500004460027FFF78AFD7020FFF753FDFFF7D7
:100F6000CDFDE0B2FFF74EFDFFF7C8FD002408E01D
:100F7000305DFFF747FDFFF7C1FD070003D1641C9B
:100F8000E4B2AC42F4D3FFF797FD3846BDE8F081F8
:100F90002DE9F04F85B00024574800940194029445
:100FA0000394816941F010018161816901F01001B0
:100FB0000491816941F080018161816901F08001C2
:100FC0000491816941F004018161816901F00401AA
:100FD0000491816941F008018161816901F0080192
:100FE0000491816941F480718161816901F48071AA
:100FF0000491816941F040018161816901F0400102
:101000000491816941F0200181618069DFF8ECA0E1
:1010100000F0200042F211050490002229465046BB
:1010200000F089FBDFF8D8904FF46F570022394663
:10103000484600F080FBDFF8CCB000228021584603
:1010400000F079FB002240212F4800F074FB4FF4A0
:101050000048002241462D4800F06DFB002203218C
:101060002B4800F068FB0095022601250396CDE988
:1010700001546946504600F063FA00970396CDE9A3
:1010800001546946484600F05BFA0E20CDE90004A1
:1010900069465046029400F053FA6020CDE90004FE
:1010A00069465846029400F04BFA8020CDE90005CD
:1010B000CDE902466946584600F042FA4020CDE9A3
:1010C0000005CDE9024669460F4800F039FACDF82F
:1010D00000800396CDE9015469460C4800F030FACF
:1010E0000320CDE90005CDE902466946084800F035
:1010F00027FA05B0BDE8F08F001002400010014053
:10110000001C014000080140001401400020014083
:10111000001801402DE9F041424888B0816941F052
:10112000800181618069012400F0800006904FF405
:101130000060CDE902040320CDE90440DFF8E88037
:1011400002A9404600F0FCF9A6020025CDE902659F
:1011500002A9404600F0F4F9FFF7BEFB334FC7F891
:10116000AC510A2007F5D67706F076FD3C600A20E0
:1011700006F072FD02240296CDE9035402A940460E
:1011800000F0DEF9642006F067FD0422694648F2AB
:10119000401000F06BF88DF8045025A16846FFF769
:1011A000EFF990B123A16846FFF7EAF968B123A1EE
:1011B0006846FFF7E5F940B122A16846FFF7E0F97C
:1011C00018B1012008B0BDE8F08169461FA0FFF703
:1011D0004FF818A16846FFF7D3F908BB8DF8004017
:1011E00048F2400401226946204600F06DF90122D0
:1011F0006946E01D00F03AF89DF80010602905D21C
:1012000015A0FFF735F8012000F038F90A2006F0A4
:1012100023FD8DF8005001226946204600F054F964
:101220000020CFE700100240001C01400080234254
:10123000393131003931343700000000313135386F
:1012400000000000393237310000000043545020C4
:1012500049443A25730D0A0044656661756C742033
:101260005665723A25640D0A000000002DE9F04130
:1012700015460F460446FFF7F9FB2820FFF7C2FB8F
:10128000FFF73CFC200AFFF7BDFBFFF737FCE0B29D
:10129000FFF7B8FBFFF732FCFFF7E8FB2920FFF769
:1012A000B1FBFFF72BFC00246E1E09E0B44201D015
:1012B000012000E00020FFF76BFB3855641CE4B20E
:1012C000AC42F3D3BDE8F041FFF7F6BB2DE9F14F97
:1012D000664E00244FF00A0B307882B0401CC0B23A
:1012E000B0FBFBF20BFB1201614DA146307009B15E
:1012F0000A287DD248F24E17012202A93846FFF78C
:10130000B5FF9DF808004FF0000801060AD500F06F
:101310000F00062806D28DF80480012201A9384664
:1013200000F0D2F89DF80800010777D000F00F0117
:10133000062973D2FF2088408DF80400C04395F839
:1013400020A040F0C00085F82000A889A882E88A83
:10135000484FE8834FF0010995F8201009FA04F08E
:1013600001423ED044480422694630F81400FFF799
:101370007DFFB888A0F5AA4110391CD0A0F518410E
:10138000063918D0A0F5EE41963914D095F8300002
:10139000C00714D09DF800009DF8011000EB01215A
:1013A00005EB440081819DF802109DF8032001EBBC
:1013B0000221C18215E095F83000C007EAD09DF8FF
:1013C00000009DF8011000EB012105EB4400C182F3
:1013D0009DF802109DF8032001EB02213A88511A72
:1013E0008181641CE4B2052CB6D34FF0010900E002
:1013F00014E0A9893A882846914203D8C18A7A889C
:10140000914209D99DF8081001F00F0101290CD96A
:10141000C1898181018BE98286F800809DF80800EE
:1014200000F08F0080280AD018E0818A8181C18B6A
:10143000C18280218DF8081085F820A0EEE795F88C
:101440002000010602D520F0800005E04FF6FF7174
:10145000A981E98200F0E00085F820003078F028CA
:1014600001D986F800B04846BDE8FE8F3A0000205A
:10147000400000200C0300205C9B030808B50021FD
:101480008DF800108DF801000E489DF80020435C97
:10149000491C1A44C9B28DF80020B829F5D3D0B23E
:1014A000C043401C8DF80000B822064948F24700AE
:1014B00000F00AF80222694648F2FF0000F004F842
:1014C000002008BDA49A03082DE9F04115460E46F8
:1014D00004460027FFF7CAFA2820FFF793FAFFF720
:1014E0000DFB200AFFF78EFAFFF708FBE0B2FFF7CB
:1014F00089FAFFF703FB002408E0305DFFF782FA6A
:10150000FFF7FCFA070003D1641CE4B2AC42F4D349
:10151000FFF7D2FA3846BDE8F0810000014951F8E2
:10152000200070477803002031B500F009F9044627
:1015300000F006F90099001B8842F9D338BD00007D
:101540002DE9F84FDFF8BC91002309F1040A0AF1F4
:10155000040B1C464FF00F080BF1040E01270A681C
:10156000A7403A40BA4272D1DFF89CC14D68A5EB62
:101570000C0665452BD00DDC032D34D005DC35B3CE
:10158000012D19D0022D2FD11BE0112D16D0122DB7
:101590002AD119E0B6F5881F19D006DCB6F5803FD0
:1015A00015D0B6F5801F1FD111E0B6F5001F0ED083
:1015B000B6F5041F18D10AE0CB6815E0CB681B1DF7
:1015C00012E0CB6808330FE0CB680C330CE08B687B
:1015D0002BB1012B4FF0080303D0476104E0042333
:1015E00002E0076100E00023FF2A01D8064601E07F
:1015F00000F104064FEA840501D9A5F120053768FA
:1016000008FA05FC27EA0C0703FA05F547EA05077F
:1016100037604D68ED006ED53C4DAE6946F0010671
:10162000AE61AD6924F0030605F001050095384D63
:101630007719BE68A5072D0F08FA05FC26EA0C06E7
:10164000DFF8D0C0604503D14FF0000C25E052E038
:10165000DFF8C4C0604502D14FF0010C1DE0DFF897
:10166000BCC0604502D14FF0020C16E0DFF8B0C0FC
:10167000604502D14FF0030C0FE0DFF8A8C06045D1
:1016800002D14FF0040C08E0DFF89CC0604502D1A5
:101690004FF0050C01E04FF0060C0CFA05FC4CEA8B
:1016A000060CC7F808C04D68D9F80060ED034D4638
:1016B00001D5164300E096432E604D68DAF80060CD
:1016C000AD03554601D5164300E096432E604D68A4
:1016D000DBF80060ED025D4601D5164300E096435D
:1016E0002E604D68DEF80060AD02754601D51643E8
:1016F00000E096432E60641C102CFFF42FAFBDE871
:10170000F88F00000004014000001110001002409A
:101710000000014000080140000C014000100140A1
:101720000014014000180140001C0140806808407E
:1017300000D0012070470AB1016170470904FBE73E
:10174000014800687047000004000020024801685A
:10175000491C01607047000004000020074810B5D4
:10176000016841F010010160052000F047F80F20EA
:1017700000F006F800F015F8002010BD002002402F
:1017800010B5044600F02EFA4FF47A71B0FBF1F078
:1017900000F0A2FE00222146501E00F00FF80020AB
:1017A00010BD704700F01F020121914040098000E8
:1017B00000F1E020C0F8001170470000F0B40E4BBB
:1017C0001B68C3F30223C3F10704042C00D90424CB
:1017D0001D1D072D01D2002300E0DB1E012606FAA5
:1017E00004F56D1E0D409D409E40761E164045EA54
:1017F0000601F0BC04F0ACBD0CED00E0064A00F0C0
:10180000070110684FF6FF03184040EA0120034922
:1018100008431060704700000CED00E00000FA057E
:101820000120010291FAA1F1024AB1FA81F142F8D4
:101830002100704700000E4210B5014636A086B068
:101840001DC88DE81D0038A0384C006804900020A9
:10185000042944D012DC012944D002293DD100F0F2
:10186000DFF961684FF4804292FAA2F201F440413C
:10187000B2FA82F2D140491C49002CE008292ED04E
:1018800010292AD161682268D20126D54FF470123E
:1018900092FAA2F201F47010B2FA82F2D040C903B7
:1018A0001DF8000010D561684FF4003292FAA2F2E0
:1018B00001F40031B2FA82F2D14004AA515C1C4A10
:1018C000B2FBF1F1484301E01A494843616849021B
:1018D00003D440000321B0FBF1F006B010BD00F0CE
:1018E000B7F9FAE7216AC1F30122012A03D1890776
:1018F00001D5D003F1E7022A05D1616A890702D533
:1019000049F64040E9E7032AE7D121688903E4D595
:101910004FF22440E1E7000002030405060708092E
:101920000A0B0C0D0E0F10100102000000100240F7
:1019300000127A0000093D002DE9F84304460078C2
:10194000454EC00773D0F06940F08050F061F069F7
:10195000424F00F080500090386840F4807038604A
:10196000FFF7EEFE054604E0FFF7EAFE401B6428A1
:1019700032D83868C005F7D5306A10F4407050D0BE
:10198000A18801F4407181424BD0306A01273B04A9
:1019900093FAA3F1B1FA81F18A00314920F4407041
:1019A0000A44C2F8007493FAA3F3B3FA83F301EB89
:1019B00083010022C1F800243062C00731D0FFF754
:1019C000BFFE054641F288394FF0020807E0FFF7F5
:1019D000B7FE411B494502D90320BDE8F88398FAB8
:1019E000A8F0B0FA80F040F040004146B7EB501F3D
:1019F00001D130680BE091FAA1F0B0FA80F040F02C
:101A00004000B1EB501F01D1306A00E0706A98FAD3
:101A1000A8F1B1FA81F101F01F0207FA02F10842C0
:101A2000D5D0306A616820F4407008433062207875
:101A3000800705D57068A16820F4404008437060B5
:101A40002078C00605D57068616920F480000843DD
:101A500070600020C1E700000010024000700040EC
:101A6000000042422DE9F047DFF8688104460E4647
:101A7000D8F8000000F00700B0420CD2D8F80010EF
:101A800021F007013143C8F80010D8F8000000F039
:101A90000700B04273D120784F4F800705D5786892
:101AA000A16820F0F000084378602078C00755D086
:101AB0006068012201280CD0022828D0022393FA62
:101AC000A3F1B1FA81F141F02001490904D039684C
:101AD00003E04FF40033F2E7796A93FAA3F3B3FA21
:101AE00083F303F01F039A40114248D0796821F034
:101AF000030101437960FFF723FE0546606841F268
:101B0000883101280CD00228894615D022E04FF0F8
:101B10000073D4E7FFF714FE411B494501D916E0D5
:101B200089467868C0F381000128F3D116E0FFF7F9
:101B300007FE411B49450AD87868C0F38100022896
:101B4000F5D10BE0FFF7FCFD411B494502D903200D
:101B5000BDE8F087786810F00C0FF3D1D8F80010CA
:101B6000404601F00701B1420BD9016821F007019D
:101B700031430160006800F00700B04201D001204D
:101B8000E6E72078400705D57868E16820F4E06052
:101B9000084378602078000706D57868216920F42A
:101BA000605040EAC100786000F052F87968F02295
:101BB00092FAA2F201F0F001B2FA82F2D140074AA1
:101BC000515CC840064908600F20FFF7D9FD00208E
:101BD000BEE700000020024000100240EE070308AC
:101BE000000000200148006870470000000000204D
:101BF00008480949006849684FF4E06292FAA2F285
:101C000001F4E061B2FA82F2D140044A515CC8406A
:101C1000704700000000002000100240FE0703088B
:101C200008480949006849684FF4605292FAA2F2E4
:101C300001F46051B2FA82F2D140044A515CC840CA
:101C4000704700000000002000100240FE0703085B
:101C500010B519A085B00FC88DE80F001AA01B4B56
:101C60000068049059681A4801F00C02042A1DD03B
:101C7000082A1BD14FF4701494FAA4F401F47012E2
:101C8000B4FA84F4E240C9031DF8022010D5596863
:101C90004FF4003393FAA3F301F40031B3FA83F362
:101CA000D94004AB595CB0FBF1F0504305B010BD16
:101CB00008485043FAE70000020304050607080934
:101CC0000A0B0C0D0E0F1010010200000010024054
:101CD00000127A0000093D002DE9F84F0446007813
:101CE000FE4EC0074FF001057FD070684FF40038FA
:101CF000C0F38100012807D07068C0F3810002287A
:101D00001BD17068C00318D598FAA8F0B0FA80F01B
:101D100040F02000400901D0306800E0706A98FA75
:101D2000A8F1B1FA81F101F01F0105FA01F10842B1
:101D30005BD06068002879D057E06068B0F5803FDC
:101D40000BD010B1B0F5A02F11D0306820F4803046
:101D50003060306820F4802002E0306840F4803049
:101D60003060606818B3FFF7EBFC074609E03068A5
:101D700040F480203060F0E7FFF7E2FCC01B6428ED
:101D800070D898FAA8F0B0FA80F040F0200040092E
:101D900001D0306800E0706A98FAA8F1B1FA81F1D8
:101DA00001F01F0105FA01F10842E5D01DE0FFF73F
:101DB000C7FC074604E0FFF7C3FCC01B6428DFD85C
:101DC00098FAA8F0B0FA80F040F02000400901D065
:101DD000306800E0706A98FAA8F1B1FA81F101F078
:101DE0001F0105FA01F10842E5D12078DFF8F08201
:101DF00080074FF0000A4FF002075AD570684FF085
:101E0000F80B10F00C0F07D07068C0F381000228A7
:101E10001CD17068C00319D497FAA7F0B0FA80F00B
:101E200040F02000400902D0306801E08AE0706A8A
:101E300097FAA7F1B1FA81F101F01F0105FA01F15A
:101E400008422BD0206901287CD127E0206988B383
:101E500095FAA5F0B0FA80F048F82050FFF770FC32
:101E6000814606E04DE1FFF76BFCA0EB090002287C
:101E700086D897FAA7F0B0FA80F040F02000400929
:101E800001D0306800E0706A97FAA7F1B1FA81F1E9
:101E900001F01F0105FA01F10842E4D030689BFA15
:101EA000ABF220F0F8016069B2FA82F2904001438F
:101EB000316025E0FFE795FAA5F1B1FA81F148F824
:101EC00021A0FFF73DFC814605E0FFF739FCA0EBC0
:101ED00009000228CCD897FAA7F0B0FA80F040F0B9
:101EE0002000400901D0306800E0706A97FAA7F13D
:101EF000B1FA81F101F01F0105FA01F10842E4D1C4
:101F0000207800076DD5A069B8B395FAA5F0B0FAAE
:101F100080F008EB8000C0F88054FFF711FC814688
:101F200005E0FFF70DFCA0EB09000228A0D897FA06
:101F3000A7F0B0FA80F040F06000B5EB501F02D17E
:101F400030680CE063E197FAA7F0B0FA80F040F057
:101F50006000B7EB501F01D1306A00E0706A97FA59
:101F6000A7F1B1FA81F101F01F0105FA01F2104267
:101F7000D7D00120FFF7D8FA33E0FFE795FAA5F1B3
:101F8000B1FA81F108EB8101C1F880A4FFF7D8FB19
:101F9000814605E0FFF7D4FBA0EB0900022899D8A1
:101FA00097FAA7F0B0FA80F040F06000B5EB501F50
:101FB00001D130680BE097FAA7F0B0FA80F040F05A
:101FC0006000B7EB501F01D1306A00E0706A97FAE9
:101FD000A7F1B1FA81F101F01F0105FA01F21042F7
:101FE000D8D12078400763D5F06940F08050F06187
:101FF000F069DFF8F0B000F080500090DBF80010DE
:1020000041F48071CBF80010FFF79AFB814605E0A0
:10201000FFF796FBA0EB0900642872D8DBF80000FC
:10202000C005F5D5E06801280AD008B1052813D00D
:10203000306A20F001003062306A20F0040002E0D3
:10204000306A40F001003062E06841F2883B80B3C2
:10205000FFF776FB81460AE0306A40F00400306208
:10206000EEE7FFF76DFBA0EB0901594549D897FA58
:10207000A7F0B0FA80F040F04000B5EB501F01D15E
:1020800030680BE097FAA7F0B0FA80F040F040001B
:10209000B7EB501F01D1306A00E0706A97FAA7F1E0
:1020A000B1FA81F101F01F0205FA02F10842D8D01D
:1020B00033E0FFE7FFF744FB814605E0FFF740FB15
:1020C000A0EB090159451CD897FAA7F0B0FA80F0A7
:1020D00040F04000B5EB501F08D105E00010024071
:1020E000000042420070004030680CE097FAA7F010
:1020F000B0FA80F040F04000B7EB501F02D1306AD8
:1021000001E08AE0706A97FAA7F1B1FA81F101F073
:102110001F0205FA02F10842D0D1E06998B3716854
:10212000C1F38101022972D002284FF080714FF073
:10213000007B50460AD091FAA1F1B1FA81F148F83A
:102140002100FFF7FDFA04465F4669E08A4691FAEE
:10215000A1F1B1FA81F1C14648F82100FFF7F0FA88
:10216000A84607465D4604E0FFF7EAFAC01B0228CE
:1021700053D895FAA5F0B0FA80F040F0200040095D
:1021800002D0306801E060E0706A95FAA5F1B1FA1A
:1021900081F101F01F0208FA02F10842E4D1206A3D
:1021A000B0F5803F05D17068A16820F40030084385
:1021B0007060D4E908010843716821F47411084380
:1021C00070609AFAAAF0B0FA80F0474649F8208089
:1021D000FFF7B6FA044604E0FFF7B2FA001B022844
:1021E0001BD895FAA5F0B0FA80F040F02000400925
:1021F00001D0306800E0706A95FAA5F1B1FA81F17A
:1022000001F01F0107FA01F10842E5D01DE01EE0D0
:10221000FFF796FA001B022802D90320BDE8F88FC9
:1022200097FAA7F0B0FA80F040F02000400901D002
:10223000306800E0706A97FAA7F1B1FA81F101F015
:102240001F0105FA01F10842E2D10020E6E7012072
:10225000E4E70000024850F8210080B27047000017
:10226000006C0040024800EB810091B201607047B1
:10227000006C004070B5040003D0607C002610B1F3
:1022800005E0012070BD2674204600F043F80220CE
:102290006074204600F084F8042578BB204604F0E2
:1022A00057FA58BB2068416821F007014160A068D7
:1022B00020B11748016821F0010101601448001F96
:1022C0000168A26821F46071114301606068411CDB
:1022D00004D10120FFF7B0FA80B1401E21688A685E
:1022E00022F00F0242EA10428A602168CA6860F355
:1022F0000F02CA60204604F045FA08B16574C0E7D1
:10230000E67301206073A0736074002070BD00004C
:10231000306C004030B5204C91B0E06940F0805006
:10232000E061E06900F080501090FFF779FAE06911
:1023300040F00060E061E069012500F0006010906D
:10234000042000900020079003956846FFF7C4FC26
:1023500070B10820069500906846FFF7BDFC002884
:10236000FAD1206A20F4407040F40070206206E048
:102370004FF48070CDE90A500AA8FFF7DDFA4FF458
:10238000004090FAA0F00549B0FA80F001EB80001F
:10239000C0F8005411B030BD0010024000004242AD
:1023A00070B504000AD02068416821F0080141603E
:1023B000FFF7C6F905464FF47A7608E0012070BDB4
:1023C000FFF7BEF9401BB04201D9032070BD206861
:1023D00040680007F4D5002070BD70B515460E4664
:1023E000040003D094F83D0010B107E0012070BD57
:1023F000002084F83C00204600F01AF804F108019F
:102400002068FEF7DBFB3146A2682068FEF724FC5B
:10241000D4E901022946236BFEF79EFBA1682068E0
:1024200050F8212042F0010240F82120002070BD28
:102430001F4800B5416985B041F48071416141692F
:1024400001F480710491816941F020018161816909
:1024500001F020010491816941F0400181618169AD
:1024600001F040010491816941F4807181618069CA
:10247000694600F4807004904CF2337000900220A2
:10248000019001200290032003900A48FFF758F8BA
:102490004FF68070009069460748FFF751F841F207
:1024A0000100009069460548FFF74AF805B000BDF5
:1024B00000100240001401400018014000200140BB
:1024C0004FF0E0210428086903D020F004000861DF
:1024D000704740F00400FAE710B5401EB0F1807F6D
:1024E00001D3012010BD4FF0E02460610F2160177F
:1024F00003F02EFF0020A06107202061002010BD06
:102500007047704710B5040003D094F8390010B13B
:1025100007E0012010BD002084F83800204600F0BC
:102520000DF8022084F83900211D206804F064FBB6
:10253000012084F83900002010BD000008B50068B3
:102540000B49884212D10B48C16941F00201C161B7
:10255000C069032200F00200009001211D20FFF756
:102560002DF9BDE808401D20FFF71CB908BD00008B
:1025700000040040001002400168CA6842F00102F5
:10258000CA600068016841F00101016000207047E5
:10259000704770B50446006801694FF00005C943F3
:1025A000890715D4C168C943890711D4E91E01619F
:1025B00001202076206880698007204602D0FFF73E
:1025C000E7FF04E000F098F8204600F096F8257642
:1025D00020680169C943490717D4C168C94349073D
:1025E00013D46FF004010161022020762068806915
:1025F00010F4407F204602D0FFF7CAFF04E000F04D
:102600007BF8204600F079F8257620680169C943F7
:10261000090716D4C168C943090712D46FF008012D
:102620000161042020762068C0698007204602D01E
:10263000FFF7AEFF04E000F05FF8204600F05DF821
:10264000257620680169C943C90617D4C168C94302
:10265000C90613D46FF010010161082020762068AC
:10266000C06910F4407F204602D0FFF791FF04E0DC
:1026700000F042F8204600F040F825762068016915
:10268000C943C90708D1C168C943C90704D1891E14
:102690000161204600F032F820680169C94309064B
:1026A00009D4C168C943090605D46FF080010161EE
:1026B0002046FFF725FF20680169C943490609D470
:1026C000C168C943490605D46FF040010161204645
:1026D00000F024F820680169C94389060BD4C16859
:1026E000C943890607D46FF0200101612046BDE887
:1026F0007040FFF706BF70BD7047704706498842BB
:1027000009D100203C3151F82020521C41F82020F2
:10271000401C0828F7DB70473C03002070477047D7
:1027200090F83900704738B5044600680168C268FF
:10273000C1F3000102F4807221B11AB1E16B41F0E2
:102740000101E1630168C1F34002416901F0010147
:1027500022B119B1E26B42F00402E2630268C2F3F3
:10276000800222B119B1E26B42F00202E263026818
:10277000C2F3C00222B119B1E16B41F00801E1637B
:102780000168C068C1F3401100F0200019B110B118
:10279000204605F073F820680168C068C1F3C011D5
:1027A00000F0800019B110B1204605F073F92168DE
:1027B0000868CA68C0F3801002F04002012568B1C1
:1027C00062B1CA68204622F04002CA6094F839100B
:1027D000322910D080F8395000F0E6F8E06B00287C
:1027E00008D0206801684068009084F8395020467D
:1027F000FFF795FF38BD222180F83910ECE770B55E
:10280000040004D094F83900002510B106E001203E
:1028100070BD84F83850204600F020F8022084F87B
:1028200039002068C16821F40051C160204605F0DC
:1028300079F82068016921F49041016120684169BB
:1028400021F02A0141612068C16841F40051C16052
:10285000E563012084F83900002070BD10B50068E0
:102860001E4986B0884236D11D48816941F0040175
:102870008161816901F004010491816941F4804121
:102880008161816901F480410491816941F0010114
:1028900081618069134C00F0010004904FF40070D6
:1028A00000900220019001200290032003906946CD
:1028B0002046FEF745FE2115009100210191694651
:1028C0002046FEF73DFE2520FEF76CFF0322114651
:1028D0002520FEF773FF06B010BD00000038014050
:1028E000001002400008014090F83930012B01D05F
:1028F000122B2BD131B32AB390F83830012B25D0CD
:10290000012380F8383081628285C2850021C1634D
:1029100090F83920122A17D0222280F8392080F826
:1029200038100168CA6842F48072CA6001684A6956
:1029300042F001024A610068C16841F02001C160B3
:1029400000207047012070473222E6E702207047DE
:1029500030B50068114988420CD1114A50880104F1
:1029600008D41146440409784FF0000306D50A291B
:1029700001D0538030BD40F400400DE00D2909D056
:10298000C0F30D04074D401C80B229555080C72864
:10299000EFD830BD40F48040508030BD0038014059
:1029A0000C000020C00100207047FEE770B50D4C00
:1029B0000025C4F898510C48016821F0704101606D
:1029C000016841F040510160C4F89C51022004F5B7
:1029D000CC7405F04FF901202060022005F04AF97F
:1029E000256070BD00802142000C01400E4810B5EA
:1029F000816986B041F0080181618069012400F09D
:102A000008000490C020CDE900040320CDE9024075
:102A100069460648FEF794FD0548C0F89C41C0F899
:102A2000984106B010BD000000100240000C0140AB
:102A30000080214270B50D4C0026C4F898610C4806
:102A4000016821F070410160016841F0405101606E
:102A50000125C4F89C51022004F5CC7405F00AF954
:102A60002560022005F006F9266070BD0080214235
:102A7000000C01402DE9F047814617480024016809
:102A800021F070410160016841F000410160134E86
:102A9000254627464FF00108C6F89871022005F038
:102AA000E9F8C6F898816006040ED6F81C0108B152
:102AB000641CE4B2012005F0DDF86D1CEDB2082DB8
:102AC000EAD3B9F1000F04D0FFF770FF2046BDE84C
:102AD000F087FFF7AFFFF9E7000C014000802142CB
:102AE0002DE9F04105461448016821F0704101606C
:102AF000016841F040510160104E0027C6F89871FE
:102B00003C464FF00108E809C6F89C016806050E2E
:102B1000022005F0AFF8C6F89881022005F0AAF867
:102B2000C6F89871022005F0A5F8641CE4B2082CE0
:102B3000E9D3BDE8F0810000000C01400080214293
:102B400070B50D48016821F070410160016841F0E5
:102B500040510160094C0120C4F89C01C4F898015F
:102B6000042004F5CC7405F085F800256560042088
:102B700005F080F8256070BD000C01400080214206
:102B80000E4810B5016821F070410160016841F004
:102B9000405101600A4C0020C4F89801C4F89C011F
:102BA000042004F5CC7405F065F801202060606015
:102BB000BDE81040042005F05DB80000000C0140A5
:102BC0000080214270B513480024016821F0704153
:102BD0000160016841F0004101600F4D0126C5F818
:102BE0009C61304605F046F8C5F89861012005F073
:102BF00041F807E0641CE4B2FA2C03D9FFF7C0FFE8
:102C0000012070BDD5F81C010028F3D1C5F898014A
:102C100070BD0000000C01400080214281070CD1F2
:102C20006421B0FBF1F201FB120141B94FF4C8710C
:102C3000B0FBF1F201FB120008B100207047012047
:102C40007047000070B5144886B0816941F00401F6
:102C50008161816901F004010491816941F04001C1
:102C600081618069002600F0400004900120CDE9D8
:102C700000060224032569460848CDE90245FEF70F
:102C80005FFC1020CDE9000669460548CDE9024504
:102C9000FEF756FC06B070BD00100240000801406F
:102CA000001801402DE9F04101251B4C1B4E1C4F23
:102CB000012813D0207858B110213046FEF736FD98
:102CC00001280DD001213846FEF730FD012807D03C
:102CD00010213046FEF72AFDB0B11BE02570EBE76E
:102CE0000A2004F0B9FF0020207010213046FEF7C2
:102CF0001DFD012806D001213846FEF717FD0128E9
:102D000008D10320BDE8F08101213846FEF70EFD11
:102D100000B925700020F5E73800002000180140B8
:102D20000008014070B509490646002408884D880E
:102D300021464543204603F063F903F0BDFA0448F9
:102D400001E00680641CAC42FBD370BD0C03002084
:102D50000008006C2DE9F04F374B2C27194698716D
:102D60002B2589884FF4305A4FF4285B41F6631EB7
:102D70002A264FF0F00845F210594FF448744FF4EA
:102D8000A07C4FF4F07260B1A3F800C0A3F80280F9
:102D9000494530D1A3F808A0A3F80AB028029881C9
:102DA0003EE0A3F80080A3F802C0494507D1A3F88C
:102DB00008A0A3F80AB04FF42C50988104E07145A4
:102DC0001F8104D15D819E811A805C8001E05E815B
:102DD0009D81A1F5A640103803D0A1F5EE409638AC
:102DE00002D1A3F800C05A80A1F5184006381DD1C1
:102DF0001A805C801AE071450FD0A1F518400638A2
:102E00000BD01F815E819D81A1F5A64010380AD0AC
:102E1000A1F5EE40963806D008E01F815E819D81C5
:102E20001C805A80F0E71A80A3F802C0BDE8F04F7A
:102E3000002003F013B800000C03002010B5144666
:102E400003F0DEF803F038FA0148048010BD0000FA
:102E50000008006C2DE9FE4F0026A2EB0008824618
:102E60005F1A701E35468946B8F1000F02DD4FF03B
:102E7000010102E003D14FF00001019102E0C8F12D
:102E800000080190002F02DD4FF0010002E003D1A5
:102E90004FF00000009002E0C7F1000700904046AC
:102EA000B84501DD044600E03C46601C4FF0000BD5
:102EB000029015E01FFA89F11FFA8AF000F016F867
:102EC00046443D44A64202DD0199361B8A44A54290
:102ED00002DD00992D1B89440BF101001FFA80FBD4
:102EE00002998B45E6DDBDE8FE8F000000B503F0DA
:102EF00087F803F0E1F9024802490088088000BD24
:102F0000140000200008006CF0B51C4615460E4663
:102F100007460B46FFF79EFF3A46234631461046CA
:102F2000FFF798FF23462A4619463846FFF792FFD7
:102F30002A4623463146BDE8F0401046FFF78ABFD7
:102F40002DE9FC4F80460024154603200F46A0EBD8
:102F5000450649E0781B81B208EB040A01901FFA8C
:102F60008AF0FFF7C3FF381B81B208EB0509009018
:102F70001FFA89F0FFF7BAFF07EB040B1FFA8BF17A
:102F80001FFA89F0FFF7B2FF07EB05091FFA89F175
:102F90001FFA8AF0FFF7AAFFA8EB040A1FFA89F1CB
:102FA0001FFA8AF0FFF7A2FFA8EB05091FFA8BF1C1
:102FB0001FFA89F0FFF79AFF019881B21FFA8AF091
:102FC000FFF794FF009881B21FFA89F0FFF78EFF98
:102FD000641C002E03DA06EB8406B61D04E0601BB9
:102FE00006EB80066D1E0A36AC42B3DDBDE8FC8FF1
:102FF0002DE9FF4F804600249146032081B00F4603
:10300000A0EB490082465AE005467819264608EBAF
:10301000090B00900FE0B81B81B21FFA8BF0049AE5
:10302000FFF70CFF0098049A81B2A8EB060080B26B
:10303000FFF704FF761E002EEDDC2EE07E1BA8EBD2
:103040000400B1B280B2049AFFF7F8FE381B81B2D7
:10305000A8EB0500009080B2049AFFF7EFFE08EBA2
:10306000040BB1B21FFA8BF0049AFFF7E7FE009849
:103070003E19B1B280B2049AFFF7E0FE781981B22E
:103080001FFA8BF0049AFFF7D9FE08EB0500B1B2E6
:1030900080B2049AFFF7D2FE6D1E002DCEDC641CB8
:1030A000BAF1000F03DA0AEB8400801DAAE7A4EB53
:1030B00009010AEB810000F10A0AA9F10109484659
:1030C0004C45A1DD049A05B039464046BDE8F04FB5
:1030D000FFF7B4BE2DE9FF4F8046002415460320BC
:1030E00081B08946A0EB45073FE008EB05000026CC
:1030F000A8EB050B009010E0009809EB060A1FFAF8
:103100008AF180B2049AFFF799FE1FFA8AF11FFA3A
:103110008BF0049AFFF792FE761CA642ECDD08EBDA
:1031200004000026A8EB040B009010E0009809EBC7
:10313000060A1FFA8AF180B2049AFFF77FFE1FFA8F
:103140008AF11FFA8BF0049AFFF778FE761CAE42E4
:10315000ECDD641C002F03DA07EB8407BF1D04E0DD
:10316000601B07EB80076D1E0A37AC42BDDD05B062
:10317000BDE8F08F2DE9FF4F80460024164603205E
:1031800081B08946A0EB46073DE0251E16DB08EB23
:103190000600A8EB060B00900098A9EB050A1FFAA1
:1031A0008AF180B2049AFFF749FE1FFA8AF11FFAEA
:1031B0008BF0049AFFF742FE6D1EEDD5350016D454
:1031C00008EB0400A8EB040B00900098A9EB050A9B
:1031D0001FFA8AF180B2049AFFF730FE1FFA8AF1D3
:1031E0001FFA8BF0049AFFF729FE6D1EEDD5641CC3
:1031F000002F03DA07EB8407BF1D04E0A01B07EBD9
:103200008007761E0A37B442BFDD05B0BDE8F08FF7
:103210002DE9F041304D90460C460246060AA98839
:103220002846270A4089A1F5AA43103B0FD0A1F5F3
:10323000C853633B24D003F033F8304603F024F83E
:10324000D0B203F021F8A88903F02AF836E003F0A1
:1032500027F8304603F018F86889401C80B203F064
:103260001FF8D0B203F010F8A88903F019F8384617
:1032700003F00AF8A889401C80B203F011F820E09E
:10328000A97919B92988891A491E8AB203F008F860
:10329000160A304602F0F8FFD0B202F0F5FF3046D1
:1032A00002F0F2FFD0B202F0EFFFA88902F0F8FFBF
:1032B000384602F0E9FFE0B202F0E6FF384602F0DD
:1032C000E3FFE0B202F0E0FF044928890880891C8E
:1032D000A1F80080BDE8F0810C030020FE07006C1F
:1032E0002DE9F0438146A2EB0900401C1F460C4625
:1032F00085B2DFF83080079E0FE02146484602F095
:103300007FFE02F0D9FF0020414602E00E80401C03
:1033100080B2A842FAD3641CA4B2BC42EDD9BDE885
:10332000F08300000008006C2DE9F04FF84893B0DE
:103330008069F74940F00800886188690EA900F0AB
:103340000800129001200E900F9010900320119011
:10335000F048FEF7F5F8F0484FF0204110220160E8
:10336000EE494160062181600021C160C0E904127C
:1033700081611202C161C0E909129200C0E90B1219
:10338000416381630620CDE907011A2009900320DB
:10339000CDE900010D9106200391069102906A4645
:1033A00007A9DD48FFF719F8322004F055FCD320B7
:1033B00002F076FF02F022FDD74C4434A08002F0E8
:1033C0001DFD2146888002F019FD4FF6FF7621464B
:1033D00006EA0020888002F011FD214647F2897537
:1033E000898845F210370843214647F2967888804D
:1033F000A0F5134145F2105949F6060A41F6631B40
:1034000041397DD0042002F04BFF02F0F7FCA08090
:1034100002F0F4FCA08002F0F1FC06EA0020A0809B
:1034200002F0ECFCA1880843A0F50541A0805239C8
:1034300067D0A84264D0D42002F032FF02F0DEFC54
:10344000A08002F0DBFCA08002F0D8FC06EA00209D
:10345000A08002F0D3FCA1880843A080B84276D0B7
:10346000D32002F01DFF02F0C9FCA08002F0C6FCD0
:10347000A08002F0C3FC06EA0020A08002F0BEFC9F
:10348000A1880843A080404561D055214FF4704089
:1034900002F01CFFAA214FF2010002F017FF522197
:1034A0004FF2020002F012FF08214FF2030002F077
:1034B0000DFF01214FF2040002F008FF4FF44540D8
:1034C00002F0EEFE02F09AFC06EA0020A0804CF228
:1034D000015002F0E5FE02F091FCA1880843A080B3
:1034E000052004F0B9FBA188494530D0D32002F073
:1034F000D7FE02F083FCA08002F080FCA08001E0F7
:1035000020E020E002F07AFC06EA0020A08002F031
:1035100075FCA1880843A080504518D0A12002F076
:10352000BFFE02F06BFCA08002F068FC06EA0020FF
:10353000A08002F063FCA1880843A0F5AE41A08002
:10354000613902D003E0A58001E0A4F804B0A188AD
:1035500073A0FCF78DFEA088A0F5134141397DD002
:10356000A8427CD1112002F09BFE782004F074FB6D
:10357000362002F095FE002002F086FE3A2002F08E
:103580008FFE052002F080FEB22002F089FE0C20A2
:1035900002F07AFE0C2002F077FE002002F074FEAA
:1035A000332002F071FE332002F06EFEB72002F0ED
:1035B00077FE352002F068FEBB2002F071FE32205B
:1035C00002F062FEC02002F06BFE0C2002F05CFEF6
:1035D000C22002F065FE012002F056FEC32002F078
:1035E0005FFE102002F050FEC42002F059FE2020A1
:1035F00002F04AFEC62002F053FE0F2002F044FE05
:10360000D02002F04DFEA42002F03EFEA12002F0E8
:103610003BFEE02002F044FED02002F035FE002008
:1036200002F032FE022002F02FFE072002F02CFEF4
:103630000A2002F029FE282002F026FE322002F0A5
:1036400023FE442002F020FE422002F01DFE062050
:1036500002F01AFE0E2002F017FE01E068E079E1A8
:10366000122002F011FE142002F00EFE172002F0CC
:103670000BFEE12002F014FED02002F005FE002037
:1036800002F002FE022002F0FFFD072002F0FCFD26
:103690000A2002F0F9FD282002F0F6FD312002F0A8
:1036A000F3FD542002F0F0FD472002F0EDFD0E2066
:1036B00002F0EAFD1C2002F0E7FD172002F0E4FD15
:1036C0001B2002F0E1FD1E2002F0DEFD2A2002F0A8
:1036D000E7FD002002F0D8FD002002F0D5FD00201B
:1036E00002F0D2FDEF2002F0CFFD2B2002F0D8FD3A
:1036F000002002F0C9FD002002F0C6FD012002F00A
:10370000C3FD3F2002F0C0FD292002F0A2BA000054
:1037100000100240000C0140C8020020040100A07B
:10372000204C43442049443A25780D0A000000000B
:10373000CF2002F0B5FD002002F0A6FDC12002F06E
:10374000A3FD302002F0A0FDED2002F0A9FD6420D1
:1037500002F09AFD032002F097FD122002F094FD82
:10376000812002F091FDE82002F09AFD852002F010
:103770008BFD102002F088FD7A2002F085FDCB2021
:1037800002F08EFD392002F07FFD2C2002F07CFD3E
:10379000002002F079FD342002F076FD022002F0D4
:1037A00073FDF72002F07CFD202002F06DFDEA2081
:1037B00002F076FD002002F067FD002002F064FDBB
:1037C000C02002F06DFD1B2002F05EFDC12002F062
:1037D00067FD012002F058FDC52002F061FD302098
:1037E00002F052FD302002F04FFDC72002F058FDDC
:1037F000B72002F049FD362002F052FD482002F0C9
:1038000043FD3A2002F04CFD552002F03DFDB12071
:1038100002F046FD002002F037FD1A2002F034FDD0
:10382000B62002F03DFD0A2002F02EFDA22002F09B
:103830002BFDF22002F034FD002002F025FD2620B1
:1038400002F02EFD012002F01FFDE02002F028FD15
:103850000F2002F019FD2A2002F016FD282002F0A8
:1038600013FD082002F010FD0E2002F00DFD0820CF
:1038700002F00AFD542002F007FDA92002F004FD29
:10388000432002F001FD0A2002F0FEFC0F2002F0AE
:10389000FBFC002002F0F8FC002002F0F5FC002008
:1038A00002F0F2FC002002F0EFFCE12002F0F8FC54
:1038B000002002F0E9FC152002F0E6FC172002F0DF
:1038C000E3FC072002F0E0FC112002F0DDFC062002
:1038D00002F0DAFC2B2002F0D7FC562002F0D4FCD8
:1038E0003C2002F0D1FC052002F0CEFC102002F0BA
:1038F000CBFC0F2002F0C8FC3F2002F0C5FC3F20AB
:1039000002F0C2FC0F2002F0BFFC2B2002F0C8FC2A
:10391000002002F0B9FC002002F0B6FC012002F009
:10392000B3FC3F2002F0B0FC2A2002F0B9FC0020DA
:1039300002F0AAFC002002F0A7FC002002F0A4FC88
:10394000EF2002F0A1FC112002F0AAFC782004F084
:1039500083F9D9E6B8427CD1ED2002F0A1FC012028
:1039600002F092FCFE2002F08FFCEE2002F098FCA8
:10397000DE2002F089FC212002F086FCF12002F01A
:103980008FFC012002F080FCDF2002F089FC102077
:1039900002F07AFCC42002F083FC8F2002F074FC59
:1039A000C62002F07DFC002002F06EFCE22002F056
:1039B0006BFCE22002F068FCE22002F065FCBF2014
:1039C00002F06EFCAA2002F05FFCB02002F068FC5E
:1039D0000D2002F059FC002002F056FC0D2002F0F0
:1039E00053FC002002F050FC112002F04DFC00209E
:1039F00002F04AFC192002F047FC002002F044FCCF
:103A0000212002F041FC002002F03EFC2D2002F0BB
:103A10003BFC002002F038FC3D2002F035FC002089
:103A200002F032FC5D2002F02FFC002002F02CFCA2
:103A30005D2002F029FC002002F026FCB12002F0FB
:103A40002FFC802002F020FC002002F01DFC8B20C7
:103A500000E0FCE302F018FC002002F015FC9620C8
:103A600002F012FC002002F00FFCB22002F018FC61
:103A7000002002F009FC002002F006FC022002F007
:103A800003FC002002F000FC032002F0FDFB0020FC
:103A900002F0FAFBB32002F003FC002002F0F4FB7A
:103AA000002002F0F1FB002002F0EEFB002002F00B
:103AB000EBFB002002F0E8FB002002F0E5FB002019
:103AC00002F0E2FB002002F0DFFB002002F0DCFB52
:103AD000002002F0D9FB002002F0D6FB002002F00B
:103AE000D3FB002002F0D0FB002002F0CDFB002031
:103AF00002F0CAFB002002F0C7FB002002F0C4FB6A
:103B0000002002F0C1FB002002F0BEFB002002F00A
:103B1000BBFB002002F0B8FB002002F0B5FB002048
:103B200002F0B2FB002002F0AFFBB42002F0B8FBC1
:103B30008B2002F0A9FB002002F0A6FB962002F0E9
:103B4000A3FB002002F0A0FBA12002F09DFB0020BF
:103B500002F09AFBB52002F0A3FB022002F094FBD6
:103B6000002002F091FB032002F08EFB002002F007
:103B70008BFB042002F088FB002002F085FBB620BE
:103B800002F08EFB002002F07FFB002002F07CFBA5
:103B9000B72002F085FB002002F076FB002002F047
:103BA00073FB3F2002F070FB002002F06DFB5E20F3
:103BB00002F06AFB002002F067FB642002F064FB65
:103BC000002002F061FB8C2002F05EFB002002F07E
:103BD0005BFBAC2002F058FB002002F055FBDC2020
:103BE00002F052FB002002F04FFB702002F04CFB71
:103BF000002002F049FB902002F046FB002002F07A
:103C000043FBEB2002F040FB002002F03DFBDC20F8
:103C100002F03AFB002002F037FBB82002F040FB34
:103C2000002002F031FB002002F02EFB002002F009
:103C30002BFB002002F028FB002002F025FB0020D7
:103C400002F022FB002002F01FFB002002F01CFB10
:103C5000BA2002F025FB242002F016FB002002F01F
:103C600013FB002002F010FB002002F00DFBC1202E
:103C700002F016FB202002F007FB002002F004FBFC
:103C8000542002F001FB002002F0FEFAFF2002F0B7
:103C9000FBFA002002F0F8FAC22002F001FB0A2031
:103CA00002F0F2FA002002F0EFFA042002F0ECFA3F
:103CB000002002F0E9FAC32002F0F2FA3C2002F000
:103CC000E3FA002002F0E0FA3A2002F0DDFA0020E8
:103CD00002F0DAFA392002F0D7FA002002F0D4FA22
:103CE000372002F0D1FA002002F0CEFA3C2002F098
:103CF000CBFA002002F0C8FA362002F0C5FA002004
:103D000002F0C2FA322002F0BFFA002002F0BCFA40
:103D10002F2002F0B9FA002002F0B6FA2C2002F0AF
:103D2000B3FA002002F0B0FA292002F0ADFA002028
:103D300002F0AAFA262002F0A7FA002002F0A4FA64
:103D4000242002F0A1FA002002F09EFA242002F0C2
:103D50009BFA002002F098FA232002F095FA002046
:103D600002F092FA3C2002F08FFA002002F08CFA66
:103D7000362002F089FA002002F086FA322002F0A2
:103D800083FA002002F080FA2F2002F07DFA002052
:103D900002F07AFA2C2002F077FA002002F074FA8E
:103DA000292002F071FA002002F06EFA262002F0BB
:103DB0006BFA002002F068FA242002F065FA002075
:103DC00002F062FA242002F05FFA002002F05CFAAE
:103DD000232002F059FA002002F056FAC42002F023
:103DE0005FFA622002F050FA002002F04DFA05203E
:103DF00002F04AFA002002F047FA842002F044FA66
:103E0000002002F041FAF02002F03EFA002002F019
:103E10003BFA182002F038FA002002F035FAA4200C
:103E200002F032FA002002F02FFA182002F02CFAE9
:103E3000002002F029FA502002F026FA002002F0B9
:103E400023FA0C2002F020FA002002F01DFA1720BD
:103E500002F01AFA002002F017FA952002F014FA84
:103E6000002002F011FAF32002F00EFA002002F016
:103E70000BFAE62002F008FA002002F005FAC5204D
:103E800002F00EFA322002F0FFF9002002F0FCF9F5
:103E9000442002F0F9F9002002F0F6F9652002F062
:103EA000F3F9002002F0F0F9762002F0EDF900209D
:103EB00002F0EAF9882002F0E7F9002002F0E4F9C4
:103EC000C62002F0EDF9202002F0DEF9002002F019
:103ED000DBF9172002F0D8F9002002F0D5F9012013
:103EE00002F0D2F9002002F0CFF9C72002F0D8F991
:103EF000002002F0C9F9002002F0C6F9002002F00B
:103F0000C3F9002002F0C0F9C82002F0C9F900206E
:103F100002F0BAF9002002F0B7F9002002F0B4F97B
:103F2000002002F0B1F9C92002F0BAF9002002F035
:103F3000ABF9002002F0A8F9002002F0A5F900205A
:103F400002F0A2F9002002F09FF9002002F09CF993
:103F5000002002F099F9002002F096F9002002F00A
:103F600093F9002002F090F9002002F08DF9002072
:103F700002F08AF9002002F087F9002002F084F9AB
:103F8000002002F081F9002002F07EF9E02002F02A
:103F900087F9162002F078F9002002F075F91C204C
:103FA00002F072F9002002F06FF9212002F06CF9A2
:103FB000002002F069F9362002F066F9002002F0D4
:103FC00063F9462002F060F9002002F05DF952200A
:103FD00002F05AF9002002F057F9642002F054F977
:103FE000002002F051F97A2002F04EF9002002F090
:103FF0004BF98B2002F048F9002002F045F9992096
:1040000002F042F9002002F03FF9A82002F03CF94A
:10401000002002F039F9B92002F036F9002002F050
:1040200033F9C42002F030F9002002F02DF9CA2043
:1040300002F02AF9002002F027F9D22002F024F938
:10404000002002F021F9D92002F01EF9002002F030
:104050001BF9E02002F018F9002002F015F9F32016
:1040600002F012F9002002F00FF9E12002F018F935
:10407000162002F009F9002002F006F91C2002F0D7
:1040800003F9002002F000F9222002F0FDF80020E0
:1040900002F0FAF8362002F0F7F8002002F0F4F807
:1040A000452002F0F1F8002002F0EEF8522002F074
:1040B000EBF8002002F0E8F8642002F0E5F80020B8
:1040C00002F0E2F87A2002F0DFF8002002F0DCF8DB
:1040D0008B2002F0D9F8002002F0D6F8992002F0E7
:1040E000D3F8002002F0D0F8A82002F0CDF800208C
:1040F00002F0CAF8B92002F0C7F8002002F0C4F8B4
:10410000C42002F0C1F8002002F0BEF8CA2002F07C
:10411000BBF8002002F0B8F8D22002F0B5F8002079
:1041200002F0B2F8D82002F0AFF8002002F0ACF8AC
:10413000E02002F0A9F8002002F0A6F8F32002F037
:10414000A3F8002002F0A0F8E22002F0A9F8052070
:1041500002F09AF8002002F097F80B2002F094F891
:10416000002002F091F81B2002F08EF8002002F0EF
:104170008BF8342002F088F8002002F085F8442003
:1041800002F082F8002002F07FF84F2002F07CF865
:10419000002002F079F8612002F076F8002002F0A9
:1041A00073F8792002F070F8002002F06DF8882092
:1041B00002F06AF8002002F067F8972002F064F835
:1041C000002002F061F8A62002F05EF8002002F064
:1041D0005BF8B72002F058F8002002F055F8C22032
:1041E00002F052F8002002F04FF8C72002F04CF81D
:1041F000002002F049F8D12002F046F8002002F039
:1042000043F8D62002F040F8002002F03DF8DD200F
:1042100002F03AF8002002F037F8F32002F034F808
:10422000002002F031F8E32002F03AF8052002F015
:104230002BF8002002F028F80A2002F025F80020D0
:1042400002F022F81C2002F01FF8002000E0FDE23E
:1042500002F01AF8332002F017F8002002F014F8E8
:10426000442002F011F8002002F00EF8502002F075
:104270000BF8002002F008F8622002F005F8002098
:1042800002F002F8782001F0FFFF002001F0FCFFAF
:10429000882001F0F9FF002001F0F6FF972001F0DF
:1042A000F3FF002001F0F0FFA62001F0EDFF002059
:1042B00001F0EAFFB72001F0E7FF002001F0E4FF82
:1042C000C22001F0E1FF002001F0DEFFC72001F075
:1042D000DBFF002001F0D8FFD12001F0D5FF002046
:1042E00001F0D2FFD52001F0CFFF002001F0CCFF7C
:1042F000DD2001F0C9FF002001F0C6FFF32001F02E
:10430000C3FF002001F0C0FFE42001F0C9FF01203D
:1043100001F0BAFF002001F0B7FF012001F0B4FF67
:10432000002001F0B1FF022001F0AEFF002001F0FB
:10433000ABFF2A2001F0A8FF002001F0A5FF3C20E0
:1043400001F0A2FF002001F09FFF4B2001F09CFF35
:10435000002001F099FF5D2001F096FF002001F0A0
:1043600093FF742001F090FF002001F08DFF842066
:1043700001F08AFF002001F087FF932001F084FF05
:10438000002001F081FFA22001F07EFF002001F05B
:104390007BFFB32001F078FF002001F075FFBE2005
:1043A00001F072FF002001F06FFFC42001F06CFFEC
:1043B000002001F069FFCD2001F066FF002001F030
:1043C00063FFD32001F060FF002001F05DFFDD20DE
:1043D00001F05AFF002001F057FFF32001F054FFD5
:1043E000002001F051FFE52001F05AFF002001F00C
:1043F0004BFF002001F048FF002001F045FF0020A6
:1044000001F042FF022001F03FFF002001F03CFFDD
:10441000292001F039FF002001F036FF3C2001F097
:1044200033FF002001F030FF4B2001F02DFF002072
:1044300001F02AFF5D2001F027FF002001F024FF9A
:10444000742001F021FF002001F01EFF842001F004
:104450001BFF002001F018FF932001F015FF002042
:1044600001F012FFA22001F00FFF002001F00CFF6D
:10447000B32001F009FF002001F006FFBE2001F08B
:1044800003FF002001F000FFC42001F0FDFE00202A
:1044900001F0FAFECD2001F0F7FE002001F0F4FE5D
:1044A000D32001F0F1FE002001F0EEFEDC2001F04F
:1044B000EBFE002001F0E8FEF32001F0E5FE002015
:1044C00001F0E2FEE62001F0EBFE112001F0DCFE3F
:1044D000002001F0D9FE342001F0D6FE002001F0CA
:1044E000D3FE562001F0D0FE002001F0CDFE762054
:1044F00001F0CAFE002001F0C7FE772001F0C4FEE3
:10450000002001F0C1FE662001F0BEFE002001F097
:10451000BBFE882001F0B8FE002001F0B5FE992016
:1045200001F0B2FE002001F0AFFEBB2001F0ACFEB6
:10453000002001F0A9FE992001F0A6FE002001F064
:10454000A3FE662001F0A0FE002001F09DFE552094
:1045500001F09AFE002001F097FE552001F094FE34
:10456000002001F091FE452001F08EFE002001F0B8
:104570008BFE432001F088FE002001F085FE4420E0
:1045800001F082FE002001F07FFEE72001F088FEAE
:10459000322001F079FE002001F076FE552001F076
:1045A00073FE002001F070FE762001F06DFE002009
:1045B00001F06AFE662001F067FE002001F064FE53
:1045C000672001F061FE002001F05EFE672001F02F
:1045D0005BFE002001F058FE872001F055FE002010
:1045E00001F052FE992001F04FFE002001F04CFE38
:1045F000BB2001F049FE002001F046FE992001F0A9
:1046000043FE002001F040FE772001F03DFE002037
:1046100001F03AFE442001F037FE002001F034FEA4
:10462000562001F031FE002001F02EFE232001F083
:104630002BFE002001F028FE332001F025FE002093
:1046400001F022FE452001F01FFE002001F01CFEBB
:10465000E82001F025FE002001F016FE002001F008
:1046600013FE992001F010FE002001F00DFE8720BE
:1046700001F00AFE002001F007FE882001F004FE90
:10468000002001F001FE772001F0FEFD002001F086
:10469000FBFD662001F0F8FD002001F0F5FD88200B
:1046A00001F0F2FD002001F0EFFDAA2001F0ECFD89
:1046B000002001F0E9FDBB2001F0E6FD002001F043
:1046C000E3FD992001F0E0FD002001F0DDFD662012
:1046D00001F0DAFD002001F0D7FD552001F0D4FDF6
:1046E000002001F0D1FD552001F0CEFD002001F0A9
:1046F000CBFD442001F0C8FD002001F0C5FD4420A1
:1047000001F0C2FD002001F0BFFD552001F0BCFD0D
:10471000002001F0B9FDE92001F0C2FDAA2001F05E
:10472000B3FD002001F0B0FD002001F0ADFD002040
:1047300001F0AAFD002001F0B3FDAA2001F0A4FDC4
:10474000CF2001F0ADFD002001F09EFD002001F022
:104750009BFD002001F098FD002001F095FD002058
:1047600001F092FD002001F08FFD002001F08CFD92
:10477000002001F089FD002001F086FD002001F0FD
:1047800083FD002001F080FD002001F07DFD002070
:1047900001F07AFD002001F077FD002001F074FDAA
:1047A000002001F071FD002001F06EFDF02001F00D
:1047B00077FD002001F068FD502001F065FD00202C
:1047C00001F062FD002001F05FFD002001F05CFDC2
:1047D000F32001F065FD002001F056FDF92001F005
:1047E0005FFD062001F050FD102001F04DFD292055
:1047F00001F04AFD002001F047FD3A2001F050FD94
:10480000552001F041FD112001F04AFD642003F024
:1048100023FA292001F044FD352001F041FD00205C
:1048200001F032FD512001F03BFDFF2001F02CFD95
:10483000532001F035FD2C2001F026FD552001F01C
:104840002FFD822001F020FD01F002BA48457CD105
:104850004FF470485521404601F038FD4FF20103F6
:10486000AA21184601F032FD4FF2020452212046DF
:1048700001F02CFD651C0821284601F027FDA71C2E
:104880000121384601F022FD0D214FF4304001F0A6
:104890001DFD0D214BF2010001F018FD0D214BF221
:1048A000020001F013FD4FF436493421484601F06F
:1048B0000DFD34214BF2016001F008FD34214BF273
:1048C000026001F003FD4FF4314A0D21504601F022
:1048D000FDFC4BF2011B0D21584601F0F7FC0D21A8
:1048E0004BF2021001F0F2FC34214FF4374001F09A
:1048F000EDFC34214BF2017001F0E8FC34214BF265
:10490000027001F0E3FC00214FF4324001F0DEFCC4
:1049100000214BF2012001F0D9FC00214BF20220D2
:1049200001F0D4FC24214FF4384001F0CFFC2421C5
:104930004BF6010001F0CAFC24214BF6020001F005
:10494000C5FC01214FF43F4000E0FCE301F0BEFC58
:104950000F214FF4334001F0B9FC0F214BF201302D
:1049600001F0B4FC0F214BF2023001F0AFFC342116
:104970004FF4394001F0AAFC34214BF6011001F04C
:10498000A5FC34214BF6021001F0A0FC08214FF4E5
:10499000354001F09BFC08214BF2015001F096FCE0
:1049A00008214BF2025001F091FC03214FF44240E8
:1049B00001F08CFC24214FF43A4001F087FC2421C3
:1049C0004BF6012001F082FC24214BF6022001F07D
:1049D0007DFC00214FF43C4001F078FC78214BF63F
:1049E000014001F073FC00214BF6024001F06EFC27
:1049F00000214FF43D4001F069FC78214BF6015055
:104A000001F064FC00214BF6025001F05FFC002134
:104A10004FF43E4001F05AFC64214BF6016001F076
:104A200055FC00214FF4514001F050FC33214DF270
:104A3000011001F04BFC00214DF2021001F046FC88
:104A400034214DF2031001F041FC00214DF204101D
:104A500001F03CFC3A214DF2051001F037FC002139
:104A60004DF2061001F032FC4A214DF2071001F020
:104A70002DFC00214DF2081001F028FC5C214DF2C4
:104A8000091001F023FC00214DF20A1001F01EFC78
:104A900081214DF20B1001F019FC00214DF20C1098
:104AA00001F014FCA6214DF20D1001F00FFC0021C5
:104AB0004DF20E1001F00AFCE5214DF20F1001F04D
:104AC00005FC01214DF2101001F000FC13214DF204
:104AD000111001F0FBFB01214DF2121001F0F6FB69
:104AE00054214DF2131001F0F1FB01214DF214108D
:104AF00001F0ECFB82214DF2151001F0E7FB0121E2
:104B00004DF2161001F0E2FBCA214DF2171001F030
:104B1000DDFB02214DF2181001F0D8FB00214DF20F
:104B2000191001F0D3FB02214DF21A1001F0CEFB57
:104B300001214DF21B1001F0C9FB02214DF21C10A6
:104B400001F0C4FB34214DF21D1001F0BFFB022126
:104B50004DF21E1001F0BAFB67214DF21F1001F05B
:104B6000B5FB02214DF2201001F0B0FB84214DF283
:104B7000211001F0ABFB02214DF2221001F0A6FB47
:104B8000A4214DF2231001F0A1FB02214DF22410CB
:104B900001F09CFBB7214DF2251001F097FB02219B
:104BA0004DF2261001F092FBCF214DF2271001F0BB
:104BB0008DFB02214DF2281001F088FBDE214DF221
:104BC000291001F083FB02214DF22A1001F07EFB37
:104BD000F2214DF22B1001F079FB02214DF22C1045
:104BE00001F074FBFE214DF22D1001F06FFB03214B
:104BF0004DF22E1001F06AFB10214DF22F1001F042
:104C000065FB03214DF2301001F060FB33214DF2C2
:104C1000311001F05BFB03214DF2321001F056FB25
:104C20006D214DF2331001F051FB00214FF4524041
:104C300001F04CFB33214DF2012001F047FB002134
:104C40004DF2022001F042FB34214DF2032001F02D
:104C50003DFB00214DF2042001F038FB3A214DF2DA
:104C6000052001F033FB00214DF2062001F02EFB60
:104C70004A214DF2072001F029FB00214DF20820C6
:104C800001F024FB5C214DF2092001F01FFB002103
:104C90004DF20A2001F01AFB81214DF20B2001F0A8
:104CA00015FB00214DF20C2001F010FBA6214DF266
:104CB0000D2001F00BFB00214DF20E2001F006FB50
:104CC000E5214DF20F2001F001FB01214DF21020F2
:104CD00001F0FCFA13214DF2112001F0F7FA012145
:104CE0004DF2122001F0F2FA54214DF2132001F09E
:104CF000EDFA01214DF2142001F0E8FA82214DF283
:104D0000152001F0E3FA01214DF2162001F0DEFA40
:104D1000CA214DF2172001F0D9FA02214DF21820D4
:104D200001F0D4FA00214DF2192001F0CFFA02214E
:104D30004DF21A2001F0CAFA01214DF21B2001F0B8
:104D4000C5FA02214DF21C2001F0C0FA34214DF2C7
:104D50001D2001F0BBFA02214DF21E2001F0B6FA2F
:104D600067214DF21F2001F0B1FA02214DF22020FF
:104D700001F0ACFA84214DF2212001F0A7FA0221C2
:104D80004DF2222001F0A2FAA4214DF2232001F0DD
:104D90009DFA02214DF2242001F098FAB7214DF23C
:104DA000252001F093FA02214DF2262001F08EFA1F
:104DB000CF214DF2272001F089FA02214DF228205F
:104DC00001F084FADE214DF2292001F07FFA022160
:104DD0004DF22A2001F07AFAF2214DF22B2001F057
:104DE00075FA02214DF22C2001F070FAFE214DF2ED
:104DF0002D2001F06BFA03214DF22E2001F066FA0E
:104E000010214DF22F2001F061FA03214DF23020E4
:104E100001F05CFA33214DF2312001F057FA032101
:104E20004DF2322001F052FA6D214DF2332001F0A3
:104E30004DFA00214FF4534001F048FA33214DF26E
:104E4000013001F043FA00214DF2023001F03EFA48
:104E500034214DF2033001F039FA00214DF20430D3
:104E600001F034FA3A214DF2053001F02FFA002119
:104E70004DF2063001F02AFA4A214DF2073001F0D6
:104E800025FA00214DF2083001F020FA5C214DF2A4
:104E9000093001F01BFA00214DF20A3001F016FA38
:104EA00081214DF20B3001F011FA00214DF20C304E
:104EB00001F00CFAA6214DF20D3001F007FA0021A5
:104EC0004DF20E3001F002FAE5214DF20F3001F003
:104ED000FDF901214DF2103001F0F8F913214DF2E6
:104EE000113001F0F3F901214DF2123001F0EEF929
:104EF00054214DF2133001F0E9F901214DF2143043
:104F000001F0E4F982214DF2153001F0DFF90121C1
:104F10004DF2163001F0DAF9CA214DF2173001F0E6
:104F2000D5F902214DF2183001F0D0F900214DF2EF
:104F3000193001F0CBF902214DF21A3001F0C6F917
:104F400001214DF21B3001F0C1F902214DF21C305C
:104F500001F0BCF934214DF21D3001F0B7F9022106
:104F60004DF21E3001F0B2F967214DF21F3001F011
:104F7000ADF902214DF2203001F0A8F984214DF263
:104F8000213001F0A3F902214DF2223001F09EF907
:104F9000A4214DF2233001F099F902214DF2243081
:104FA00001F094F9B7214DF2253001F08FF902217B
:104FB0004DF2263001F08AF9CF214DF2273001F071
:104FC00085F902214DF2283001F080F9DE214DF201
:104FD000293001F07BF902214DF22A3001F076F9F7
:104FE000F2214DF22B3001F071F902214DF22C30FB
:104FF00001F06CF9FE214DF22D3001F067F903212B
:105000004DF22E3001F062F910214DF22F3001F0F7
:105010005DF903214DF2303001F058F933214DF2A2
:10502000313001F053F903214DF2323001F04EF9E5
:105030006D214DF2333001F049F900214FF4544015
:1050400001F044F933214DF2014001F03FF9002114
:105050004DF2024001F03AF934214DF2034001F0E3
:1050600035F900214DF2044001F030F93A214DF2BA
:10507000054001F02BF900214DF2064001F026F920
:105080004A214DF2074001F021F900214DF208407C
:1050900001F01CF95C214DF2094001F017F90021E3
:1050A0004DF20A4001F012F981214DF20B4001F05E
:1050B0000DF900214DF20C4001F008F9A6214DF246
:1050C0000D4001F003F900214DF20E4001F0FEF811
:1050D000E5214DF20F4001F0F9F801214DF21040A9
:1050E00001F0F4F813214DF2114001F0EFF8012125
:1050F0004DF2124001F0EAF854214DF2134001F054
:10510000E5F801214DF2144001F0E0F882214DF262
:10511000154001F0DBF801214DF2164001F0D6F800
:10512000CA214DF2174001F0D1F802214DF218408A
:1051300001F0CCF800214DF2194001F0C7F802212E
:105140004DF21A4000E000E301F0C0F801214DF2F9
:105150001B4001F0BBF802214DF21C4001F0B6F8F3
:1051600034214DF21D4001F0B1F802214DF21E40F4
:1051700001F0ACF867214DF21F4001F0A7F80221C1
:105180004DF2204001F0A2F884214DF2214001F0BF
:105190009DF802214DF2224001F098F8A4214DF231
:1051A000234001F093F802214DF2244001F08EF8E3
:1051B000B7214DF2254001F089F802214DF2264039
:1051C00001F084F8CF214DF2274001F07FF8022151
:1051D0004DF2284001F07AF8DE214DF2294001F02D
:1051E00075F802214DF22A4001F070F8F2214DF2DB
:1051F0002B4001F06BF802214DF22C4001F066F8D3
:10520000FE214DF22D4001F061F803214DF22E40B8
:1052100001F05CF810214DF22F4001F057F8032106
:105220004DF2304001F052F833214DF2314001F09F
:105230004DF803214DF2324001F048F86D214DF256
:10524000334001F043F800214FF4554001F03EF89F
:1052500033214DF2015001F039F800214DF2025096
:1052600001F034F834214DF2035001F02FF8002101
:105270004DF2045001F02AF83A214DF2055001F0A8
:1052800025F800214DF2065001F020F84A214DF298
:10529000075001F01BF800214DF2085001F016F8FC
:1052A0005C214DF2095001F011F800214DF20A5035
:1052B00001F00CF881214DF20B5001F007F80021AC
:1052C0004DF20C5001F002F8A6214DF20D5000F005
:1052D000FDFF00214DF20E5000F0F8FFE5214DF2E8
:1052E0000F5000F0F3FF01214DF2105000F0EEFFDF
:1052F00013214DF2115000F0E9FF01214DF212503F
:1053000000F0E4FF54214DF2135000F0DFFF0121C3
:105310004DF2145000F0DAFF82214DF2155000F0EA
:10532000D5FF01214DF2165000F0D0FFCA214DF2F9
:10533000175000F0CBFF02214DF2185000F0C6FFCD
:1053400000214DF2195000F0C1FF02214DF21A5018
:1053500000F0BCFF01214DF21B5000F0B7FF02210D
:105360004DF21C5000F0B2FF34214DF21D5000F000
:10537000ADFF02214DF21E5000F0A8FF67214DF253
:105380001F5000F0A3FF02214DF2205000F09EFFBD
:1053900084214DF2215000F099FF02214DF222505C
:1053A00000F094FFA4214DF2235000F08FFF022162
:1053B0004DF2245000F08AFFB7214DF2255000F045
:1053C00085FF02214DF2265000F080FFCF214DF2E3
:1053D000275000F07BFF02214DF2285000F076FFAD
:1053E000DE214DF2295000F071FF02214DF22A50CA
:1053F00000F06CFFF2214DF22B5000F067FF02210C
:105400004DF22C5000F062FFFE214DF22D5000F0C5
:105410005DFF03214DF22E5000F058FF10214DF298
:105420002F5000F053FF03214DF2305000F04EFF9B
:1054300033214DF2315000F049FF03214DF232503B
:1054400000F044FF6D214DF2335000F03FFF00218A
:105450004FF4564000F03AFF33214DF2016000F066
:1054600035FF00214DF2026000F030FF34214DF293
:10547000036000F02BFF00214DF2046000F026FFD6
:105480003A214DF2056000F021FF00214DF2066047
:1054900000F01CFF4A214DF2076000F017FF0021C9
:1054A0004DF2086000F012FF5C214DF2096000F03F
:1054B0000DFF00214DF20A6000F008FF81214DF23E
:1054C0000B6000F003FF00214DF20C6000F0FEFEC7
:1054D000A6214DF20D6000F0F9FE00214DF20E60A4
:1054E00000F0F4FEE5214DF20F6000F0EFFE012127
:1054F0004DF2106000F0EAFE13214DF2116000F051
:10550000E5FE01214DF2126000F0E0FE54214DF263
:10551000136000F0DBFE01214DF2146000F0D6FEB6
:1055200082214DF2156000F0D1FE01214DF216608E
:1055300000F0CCFECA214DF2176000F0C7FE022138
:105540004DF2186000F0C2FE00214DF2196000F02B
:10555000BDFE02214DF21A6000F0B8FE01214DF2AD
:105560001B6000F0B3FE02214DF21C6000F0AEFEA5
:1055700034214DF21D6000F0A9FE02214DF21E60A3
:1055800000F0A4FE67214DF21F6000F09FFE022193
:105590004DF2206000F09AFE84214DF2216000F06F
:1055A00095FE02214DF2226000F090FEA4214DF202
:1055B000236000F08BFE02214DF2246000F086FE95
:1055C000B7214DF2256000F081FE02214DF22660E8
:1055D00000F07CFECF214DF2276000F077FE022123
:1055E0004DF2286000F072FEDE214DF2296000F0DD
:1055F0006DFE02214DF22A6000F068FEF2214DF2AC
:105600002B6000F063FE02214DF22C6000F05EFE84
:10561000FE214DF22D6000F059FE03214DF22E6067
:1056200000F054FE10214DF22F6000F04FFE0321D8
:105630004DF2306000F04AFE33214DF2316000F04F
:1056400045FE03214DF2326000F040FE6D214DF227
:10565000336000F03BFE5521404600F037FEAA21A2
:10566000184600F033FE5221204600F02FFE08219C
:10567000284600F02BFE0021384600F027FECC2102
:10568000504600F023FE0021584600F01FFE052181
:10569000484600F01BFE70214FF4374000F016FE24
:1056A00070214BF2017000F011FE01214FF43840DF
:1056B00000F00CFE03214BF6010000F007FE032171
:1056C0004BF6020000F002FE03214BF6030000F04F
:1056D000FDFD02214FF43C4000F0F8FD00214BF6A7
:1056E000014000F0F3FD00214BF6024000F0EEFD1A
:1056F000D0214FF4494000F0E9FD02214CF60110A1
:1057000000F0E4FD50214CF6021000F0DFFD5021C6
:105710004CF6031000F0DAFD50214CF6041000F0B6
:10572000D5FD00214FF4545000F0D0FD55214FF429
:10573000685000F0CBFD4FF4885000F0B1FD7820A8
:1057400002F098FA4FF4245083E240457ED11120B4
:1057500000F0A6FD782002F07FFA362000F0A0FDD0
:10576000482000F091FD3A2000F09AFD552000F00D
:105770008BFDF02000F094FDC32000F085FDF020AB
:1057800000F08EFD962000F07FFDB42000F088FD33
:10579000012000F079FDB62000F082FD0A2000F023
:1057A00073FDA22000F070FDB72000F079FDC62047
:1057B00000F06AFDB92000F073FD022000F064FDE6
:1057C000E02000F061FDC02000F06AFD802000F0C4
:1057D0005BFD162000F058FDC12000F061FD19208E
:1057E00000F052FDC22000F05BFDA72000F04CFD50
:1057F000C52000F055FD162000F046FDE82000F021
:105800004FFD402000F040FD8A2000F03DFD0020CB
:1058100000F03AFD002000F037FD292000F034FDB3
:10582000192000F031FDA52000F02EFD332000F0FE
:105830002BFDE02000F034FDF02000F025FD0720D6
:1058400000F022FD0D2000F01FFD00E061E00420CB
:1058500000F01AFD052000F017FD142000F014FDE3
:10586000362000F011FD542000F00EFD4C2000F019
:105870000BFD382000F008FD132000F005FD14207A
:1058800000F002FD2E2000F0FFFC342000F0FCFCB4
:10589000E12000F005FDF02000F0F6FC102000F003
:1058A000F3FC142000F0F0FC0E2000F0EDFC0C20C6
:1058B00000F0EAFC082000F0E7FC352000F0E4FCF2
:1058C000442000F0E1FC4C2000F0DEFC262000F03B
:1058D000DBFC102000F0D8FC122000F0D5FC2C20BE
:1058E00000F0D2FC322000F0CFFCF02000F0D8FC19
:1058F0003C2000F0C9FCF02000F0D2FC692000F050
:10590000C3FC782002F0A8F9212000F0C9FCFDF7C3
:10591000FBBE50457ED1FF2000F0C2FCFF2000F00E
:10592000B3FC982000F0B0FC062000F0ADFCBC20D9
:1059300000F0B6FC012000F0A7FC0F2000F0A4FC52
:10594000612000F0A1FCFF2000F09EFC012000F08F
:105950009BFC012000F098FC0B2000F095FC10202F
:1059600000F092FC372000F08FFC632000F08CFCEC
:10597000FF2000F089FCFF2000F086FC012000F0F1
:1059800083FC012000F080FC002000F07DFC002062
:1059900000F07AFCFF2000F077FC522000F074FC4D
:1059A000012000F071FC002000F06EFC402000F0AF
:1059B0006BFCBD2000F074FC012000F065FC23208E
:1059C00000F062FC452000F05FFC672000F05CFC0A
:1059D000012000F059FC232000F056FC452000F087
:1059E00053FC672000F050FCBE2000F059FC002062
:1059F00000F04AFC012000F047FCAB2000F044FC22
:105A0000602000F041FC222000F03EFC222000F04B
:105A10003BFC00E020E1222000F036FC222000F0D8
:105A200033FC222000F030FCC72000F039FC362087
:105A300000F02AFCED2000F033FC7F2000F024FC75
:105A40000F2000F021FCC02000F02AFC0F2000F005
:105A50001BFC0B2000F018FC0A2000F015FCFC20B9
:105A600000F01EFC082000F00FFCDF2000F018FC06
:105A7000002000F009FC002000F006FC002000F0EF
:105A800003FC002000F000FC002000F0FDFB2020C3
:105A900000F0FAFBF32000F003FC742000F0F4FBAC
:105AA000B42000F0FDFB002000F0EEFB002000F031
:105AB000EBFB002000F0E8FBF72000F0F1FB822078
:105AC00000F0E2FBB12000F0EBFB002000F0DCFB7B
:105AD000132000F0D9FB132000F0D6FBF22000F0D9
